:060000000A128A11502AC9
:10000800F000030EF1000B195F220C1866228C1801
:0C0018006F22710E8300F00E700E0900C4
:100400008A018A140F3982073F3406345B344F3433
:0E04100066346D347D3407347F346F343F34EE
:1004A000A4227222792286229622B8220313831272
:1004B0000508A100C522D322A201A301582A0313D3
:1004C0008312FC3081000B11DA220800031383121F
:1004D000C2308F00F7308E000C10850A08008C1097
:1004E000860A0800031383160F140F138F160F16B6
:1004F0000800031383168112811101158110011464
:1005000003138312FC3081000B11080003138312C4
:1005100090109011901610161013101403138312DC
:10052000C2308F00F7308E000C10080003138316C2
:10053000F4309200031383129214121412179216BD
:1005400012129211121508000317831688018901EF
:10055000031383168801850187010610081088108F
:10056000031383128801850186018701A601080013
:10057000031383160C148C14031383120B178B179D
:100580008B160B110C108C1008000A302102031C72
:10059000CC2AA100A20AC52A01302102031C0800AE
:1005A000A100A30ACC2A22080022A40023080022CA
:1005B000A5000800081088102618E42ADF2A24085D
:1005C00087000814261408002508870088142610C0
:0205D000080021
:04400E00C430FF3F7C
:00000001FF
